:020000000C945E
:1000020037000C9400000C9400000C9400000C9437
:1000120000000C9400000C9400000C9400000C945E
:1000220000000C9400000C9400000C9400000C944E
:1000320000000C9400000C9400000C9400000C943E
:1000420000000C9400000C9400000C9400000C942E
:10005200000000003F065B4F666D7D077F6F020068
:10006200040054000A00600156000000F894EE27D4
:10007200ECBBF1E0FBBFEBBFE5BF8DE0A2E0BB272D
:10008200ED938A95E9F780E094E0A0E6ED9301977D
:10009200E9F7E0E6F0E085919591009761F0A5918E
:1000A200B59105901590BF01F00105900D92019751
:1000B200E1F7FB01F0CFEFE5EDBFE4E0EEBFC0E614
:1000C200D1E00C946400EFEFEABBEFE7E7BBEFEFA0
:1000D200E4BBE1BB3CD0EBBB3AD0E8BB38D0E5BBDC
:1000E20036D0E2BB979AA8EBBBE00E94C700979874
:1000F200E8E2F0E02F0100244014500434F12DD046
:10010200E068EBBB33D0E8BB3AD0D9F426D0EBBBE6
:10011200979AA8EBBBE00E94C700E8E2F0E02F014B
:100122000024401450046CF018D0E068E5BB1ED0E7
:10013200E2BB25D011F411D0E5BBF20131972F01BA
:10014200EFCFF20131972F01D6CFCCCFFFCFA0E670
:10015200B1E0A40DB51DEC910895D201EAE0F0E002
:100162000E94E800E05AFE4FE0810895D201EAE0E1
:10017200F0E00E94ED00E05AFE4FE0810895A4EF06
:10018200B1E00E94C700042C05280895109639F0AA
:1001920080ED97E00197F1F7A8951197C9F70895B7
:1001A200F195E195F04008950024112490E1AA0F01
:1001B200BB1F001C111C0E1A1F0A18F40E0E1F1E64
:1001C20001C0A1609A9599F7FD01D001089512D05E
:1001D200EBDF0EF4E5DF0895E894B7FF04C0A095C5
:1001E200B09511966894F7FDDBDFDEDFFD010EF4BA
:1001F200D7DF0895E894F7FF02C0D2DF6894B7FF13
:1002020006C0A095B095119600F8039400FA0895DF
:00000001FF
