:080000000C9437000C94000081
:100008000C9400000C9400000C9400000C94000068
:100018000C9400000C9400000C9400000C94000058
:100028000C9400000C9400000C9400000C94000048
:100038000C9400000C9400000C9400000C94000038
:100048000C9400000C9400000C94000000003F0683
:100058005B4F666D7D077F6F0200040054000A0045
:10006800600156000000F894EE27ECBBF1E0FBBFFE
:10007800EBBFE5BF8DE0A2E0BB27ED938A95E9F7DA
:1000880080E094E0A0E6ED930197E9F7E0E6F0E080
:1000980085919591009761F0A591B591059015907E
:1000A800BF01F00105900D920197E1F7FB01F0CF38
:1000B800EFE5EDBFE4E0EEBFC0E6D1E00C946400EC
:1000C800EFEFEABBEFE7E7BBEFEFE4BBE1BBE8E24A
:1000D800F0E02F010024401450045CF1E0E0E5BB9F
:1000E8002AD0EBBB32D0E8BBA4EFB1E00E94B2004B
:1000F800042C0528D1F4E0E0EBBB979AA8EBBBE011
:100108000E94B200E8E2F0E02F01002440145004FD
:1001180064F011D0E5BB19D0E2BBA4EFB1E00E94B6
:10012800B200F20131972F01F0CFF20131972F0180
:10013800D1CFCDCFFFCFD201EAE0F0E00E94D300CB
:10014800E05AFE4FE081E0680895D201EAE0F0E06D
:100158000E94D800E05AFE4FE0810895109639F0C9
:1001680080ED97E00197F1F7A8951197C9F70895E1
:10017800F195E195F04008950024112490E1AA0F2B
:10018800BB1F001C111C0E1A1F0A18F40E0E1F1E8E
:1001980001C0A1609A9599F7FD01D001089512D088
:1001A800EBDF0EF4E5DF0895E894B7FF04C0A095EF
:1001B800B09511966894F7FDDBDFDEDFFD010EF4E4
:1001C800D7DF0895E894F7FF02C0D2DF6894B7FF3D
:1001D80006C0A095B095119600F8039400FA08950A
:00000001FF
