:080000000C942A000C9400008E
:100008000C9400000C9400000C9400000C94000068
:100018000C9400000C9400000C9400000C94000058
:100028000C9400000C9400000C9400000C94000048
:100038000C9400000C9400000C9400000C94000038
:100048000C9400000C9400000C940000F894EE2727
:10005800ECBBF1E0FBBFEBBFE5BF8DE0A2E0BB2747
:10006800ED938A95E9F780E094E0A0E6ED93019797
:10007800E9F7EFE5EDBFE4E0EEBFC0E6D1E00C94B0
:100088004500EFEFEABBE0E0EBBBEFE7E7BBE0E002
:10009800E8BBEFEFE4BBE0E0E5BBEFEFE1BBE0E09E
:1000A800E2BBE3BFE2BFECBFEFBDEEBDEDBDECBD13
:1000B800E7BDE6BDEBBDEABDE9BDE8BDE2BDE5BD16
:1000C800E4BDE3BDE9BFE5BFE4BFEAB9E0E8E8B9EC
:1000D800E0E0E0BFE6B9EDB9E6BFB79B1AC0AAE019
:1000E800B0E00E947201EFEFEBBBE2BBA4EFB1E01E
:1000F8000E9472019798E0E0EBBBE2BBEFEFE8BB30
:10010800E5BBA4EFB1E00E947201E0E0E8BBE5BB0B
:10011800E4CFA4D0ABD0EFE7A9D0E7E0A7D0EDE7D4
:10012800A5D0EDE6A3D0E6E6A1D0EFE49FD0EBE5BD
:100138009DD0E6E09BD0EFE399D0EFE69ED0EFE7C5
:100148009CD0E7E09AD0EDE798D0EDE696D0E6E6C9
:1001580094D0EFE492D0EBE590D0E6E08ED0EFE3D8
:100168008CD0EFE691D0EFE78FD0E7E08DD0EDE7C8
:100178008BD0EDE689D0E6E687D0EFE485D0EBE5D5
:1001880083D0E6E081D0EFE37FD0EFE684D0EFE7DD
:1001980082D0E7E080D0EDE77ED0EDE67CD0E6E6E1
:1001A8007AD0EFE478D0EBE576D0E6E074D0EFE3F0
:1001B80072D0E0E0E8BBEBBB51D074D0EFE772D06F
:1001C800E7E070D0EDE76ED0EDE66CD0E6E66AD0F9
:1001D800EFE468D0EBE566D0E6E064D0EFE362D008
:1001E800EFE667D0EFE765D0E7E063D0EDE761D0F1
:1001F800EDE65FD0E6E65DD0EFE45BD0EBE559D005
:10020800E6E057D0EFE355D0EFE65AD0EFE758D005
:10021800E7E056D0EDE754D0EDE652D0E6E650D010
:10022800EFE44ED0EBE54CD0E6E04AD0EFE348D01F
:10023800EFE64DD0EFE74BD0E7E049D0EDE747D008
:10024800EDE645D0E6E643D0EFE441D0EBE53FD01C
:10025800E6E03DD0EFE33BD05CCFFFCF979AA8EB29
:10026800BBE00E9472019798EFE60895E8BBEFECB7
:10027800EBBBA8EEB3E00C947201E8BBEBEDEBBB73
:10028800A8EEB3E00C947201E8BBE6E8EBBBA8EE7D
:10029800B3E00C947201E8BBEFEBEBBBA8EEB3E064
:1002A8000C947201E2BBEFECE5BBA8EEB3E00C9452
:1002B8007201E2BBEBEDE5BBA8EEB3E00C94720172
:1002C800E2BBE6E8E5BBA8EEB3E00C947201E2BB42
:1002D800EFEBE5BBA8EEB3E00C947201109639F091
:1002E80080ED97E00197F1F7A8951197C9F7089560
:00000001FF
